:100B0700013101014702012F0F0142800143C0015A
:100B17004810014014013B1801491C013A080145DE
:100B27000C014600014400013D0001410001300075
:070B3700013C00023E001426
:100BAE00E4FDFCC3ED9FEC9E5015E4FBFA0BBB007D
:0F0BBE00010AEB64354A70F50DBD00010C80E4AF
:010BCD002205
:0C0C1600D2A47F047E00120BAEC2A42208
:100B6C00A90775A080C2A4C2A6E954F0FFC4540F13
:100B7C004480F5A0120C16E9540F4480F5A0020C29
:010B8C001652
:100BCE00C2A4C2A675A082120C16AF31120B6CAF66
:090BDE002F120B6CAF47020B6CE7
:100B8D00A90775A0C0C2A4D2A6E954F0FFC4540FA2
:100B9D0044C0F5A0120C16E9540F44C0F5A0020C88
:010BAD001631
:060B3F008B2B8A2C892D8E
:100B4500E4F52EAB2BAA2CA92D120AC1FF601712B2
:100B55000B8D7401252DF52DE4352CF52C052EE591
:060B65002EC3941040DDD8
:010B6B002267
:0608CF007B007A00793283
:0608D5008B088A09890A64
:1008DB00E4FEFDAB08AA09A90A8E82758300120AF1
:1008EB00DAFFEDD3940FEF75F0644034842430FCC1
:1008FB00740B2DF8A604EF75F06484AFF0EF75F070
:10090B000A842430FC740C2DF8A604EF75F00A84CD
:10091B00AFF0EF2430FC740D2DF8A604740E80326A
:10092B00842430FC740B2DF8A604EF75F06484AFAF
:10093B00F0EF75F00A842430FC740C2DF8A604EF4C
:10094B0075F00A84AFF0EF2430FC740D2DF8A6047B
:10095B00740E2DF8762074042DFD0EEE64086003E2
:10096B000208DEAF42120B6C7B007A00790B120B84
:0F097B003FAF43120B6C7B007A00791B020B3FDE
:100BFF008F80D2B6C2B67F027E00120BAE7580FF19
:060C0F00D2B7AF80C2B7AE
:010C150022BC
:030C3F008FFA2207
:080C22007530017F4F120C3FF9
:030C2A008FFB221B
:090C2D00D292D291C2B4C290220D
:090C3600C292C291C2B4C2902224
:100BE70075D98075D840E4F5EA75FAFFF5EB75FB22
:080BF700FF75DA4275DB4222B2
:10098A00E4F54AF54B120C25120C2DC3E54B953FA5
:10099A00E54A953E4003020A34E4F546AF46120B97
:1009AA00FF74322546F8A6070546E546C394084073
:1009BA00EB85364485373D85384185343CE4F5304E
:1009CA00E53DC394195003120C22E544D39419400F
:1009DA0011E530700D7530017F3F120C3F7F5F12B9
:1009EA000C2AE541D394194011E530700D75300198
:1009FA007F5F120C3F7F3F120C2AE544C3941950C3
:100A0A0011E53DC39419500AE541C39419500312E4
:100A1A000C2D1208CF7FFA7E00120BAE054BE54B68
:0A0A2A006003020995054A020995D0
:010A3400229F
:10080000C2B7C2B6C297D296D2A7120BCE120BE7CE
:10081000120C2D120C25E4F546AF46120BFF743274
:100820002546F8A6070546E546C3940840EB8536FD
:100830004485373D85384185343CE4F530E53DC39A
:1008400094195003120C22E544D394194011E53059
:10085000700D7530017F3F120C3F7F5F120C2AE54F
:1008600041D394194011E530700D7530017F5F124E
:100870000C3F7F3F120C2AE53CC3941E400DC2A7DB
:10088000D297C296E4F53EF53F801FD2A7C3E53F5D
:100890009408E53E94005006D297C2968004C29711
:1008A000D296053FE53F7002053EE544D3941940DA
:1008B00011E53DD39419400AE541D3941940031240
:0F08C0000C361208CF7FFA7E00120BAE0208161C
:03000000020A35BC
:0C0A3500787FE4F6D8FD75814B020A7C46
:100AC100BB010689828A83E0225002E722BBFE0233
:090AD100E32289828A83E4932266
:100ADA00BB010CE58229F582E5833AF583E02250D1
:100AEA0006E92582F8E622BBFE06E92582F8E2221B
:0D0AFA00E58229F582E5833AF583E4932235
:100A4100020800E493A3F8E493A34003F68001F2C3
:100A510008DFF48029E493A3F85407240CC8C333B6
:100A6100C4540F4420C8834004F456800146F6DF85
:100A7100E4800B0102040810204080900B07E47E03
:100A8100019360BCA3FF543F30E509541FFEE4937A
:100A9100A360010ECF54C025E060A840B8E493A341
:100AA100FAE493A3F8E493A3C8C582C8CAC583CA6C
:100AB100F0A3C8C582C8CAC583CADFE9DEE780BE24
:010B3E0000B6
:00000001FF
